:100000000C946D000C9414100C9441100C94BA02D2
:100010000C94E7020C9414030C9435090C9495008D
:100020000C9495000C9494090C9495000C949500F4
:100030000C9495000C9495000C9495000C949500EC
:100040000C946E100C9495000C9431130C94631363
:100050000C9495000C9495000C9495000C949500CC
:100060000C9495000C9495001112131415160A0B9C
:100070000C0D0E0F00010203040500000008000231
:10008000010000030407000000000000000001025E
:100090000408102040800102040810200102040816
:1000A00010200404040404040404020202020202F4
:1000B00003030303030300000000230026002900BC
:1000C00000000000250028002B0000000000240094
:1000D00027002A0020024103931311241FBECFEFF3
:1000E000D8E0DEBFCDBF11E0A0E0B1E0EEE9F3E380
:1000F00002C005900D92A434B107D9F723E0A4E41F
:10010000B1E001C01D92A930B207E1F710E0CAEDDD
:10011000D0E004C02297FE010E94C216C43DD10760
:10012000C9F70E94D7130C94CD190C9400000E94BB
:10013000560F81E08093AF010895AF92BF92CF92A6
:10014000EF92FF920F9329E288E190E00FB6F894C6
:10015000A895809360000FBE2093600082E0A82ED7
:10016000B12C9CE4C92E23E0E22EF12C0FEF21E00C
:100170004FEF60E070E080EB91E00E94A60820E085
:100180004AE051E063E171E080EB91E00E949A0661
:1001900020E041E160E080EB91E00E94230621E055
:1001A0004DE061E080EB91E00E94230620E046E014
:1001B00062E080EB91E00E94230667E970E080EB4B
:1001C00091E00F91FF90EF90CF90BF90AF900C9483
:1001D000F30680937C0064E170E080E090E00E9490
:1001E000E71080917A00806480937A0080917A0091
:1001F00086FDFCCF209178006091790070E0762F29
:100200006627882777FD8095982F622B08958EE4C6
:100210000E94E9009B01AC0160E070E381E190E0A5
:100220000E948D16CA01B901089588EC0E94E90068
:100230006D577109810991090E94681526EF38E20E
:100240004CED5DE30E94F4150895CF92DF92EF929A
:10025000FF92CF93DF93CDB7DEB7A2970FB6F89496
:10026000DEBF0FBECDBFA89580EB91E00E941207C4
:100270000E94B8106B017C018091AF01882319F1B5
:100280008091A7019091A801A091A901B091AA0124
:10029000A7019601281B390B4A0B5B0BDA01C90138
:1002A000813A9648A140B10570F067E970E080EBB3
:1002B00091E00E94F306C092A701D092A801E092BB
:1002C000A901F092AA018091AF01882309F4ABC083
:1002D0008091AB019091AC01A091AD01B091AE01C4
:1002E000A7019601281B390B4A0B5B0BDA01C901E8
:1002F00089389341A105B10508F495C0B701A6015D
:1003000086E891E00E94060440E0BC0180EB91E0A9
:100310000E9413060E940C104AE0BC01CE01019617
:100320000E94B6140E9404104AE0BC01CE010B9654
:100330000E94B6140E94FC0F4AE0BC01CE01479611
:100340000E94B614BE01695E7F4FCE0141960E94A5
:10035000951460E271E0CE0141960E942115BE0124
:10036000655F7F4F0E940E1560E271E00E942115CB
:10037000BE016F5F7F4F0E940E15BC01CE014D96EE
:100380000E949514CE0141960E941014CE0147960A
:100390000E941014CE010B960E941014CE010196FB
:1003A0000E94101420E030E04AE050E0BE016F5F90
:1003B0007F4FCE014D960E943B15BE016F5F7F4F70
:1003C00086E891E00E94C60340E0BC0180EB91E02A
:1003D0000E9413060E941501AB01BC0121E084E4D8
:1003E00091E00E94F70340E0BC0180EB91E00E94A5
:1003F00013060E940701AB01BC0185E691E00E9453
:10040000150441E0BC0180EB91E00E941306C0920C
:10041000AB01D092AC01E092AD01F092AE01CE0101
:100420004D960E941014A2960FB6F894DEBF0FBE30
:10043000CDBFDF91CF91FF90EF90DF90CF900895E7
:100440004AE069E080EB91E00E94240448E160E02A
:1004500086E891E00E94900346E261E085E691E043
:100460000E94900340E062E084E491E00C949003E9
:10047000CF93CFB7F89480911102811127C0ECEA95
:10048000F0E08491E8E9F0E09491E82FF0E0EE0FDD
:10049000FF1FE653FF4FA591B4918C91892321F45E
:1004A00061E08AE00E94B61161E08AE00E947D115D
:1004B0008CB580618CBD8CB580648CBD61E08DE0B5
:1004C0000E947D1161E08BE00E947D1180911102FC
:1004D0008F5F80931102CFBFCF910895FF920F934A
:1004E0001F93CF93DF93EC01209132028F813D81E6
:1004F000909132024E81F0903202F094F4229323D4
:10050000F92A8227F822809132028F830885198583
:1005100001151105E1F0D80113969C918F2D8923C7
:1005200081F080913202892391E009F490E0909368
:100530003002F8018481809331020190F081E02D36
:100540000995D80115960D911C911697E1CF8BB3A3
:100550009C81892349F08BB3892B8BBBE881F9817E
:10056000808180933202C0CFDF91CF911F910F9194
:10057000FF9008951F920F920FB60F9211242F93A0
:100580003F934F935F936F937F938F939F93AF931B
:10059000BF93EF93FF93E0912602F09127028081B1
:1005A0008093320286E292E00E946E02FF91EF9108
:1005B000BF91AF919F918F917F916F915F914F917B
:1005C0003F912F910F900FBE0F901F9018951F9283
:1005D0000F920FB60F9211242F933F934F935F9377
:1005E0006F937F938F939F93AF93BF93EF93FF93FB
:1005F000E0911C02F0911D028081809332028CE117
:1006000092E00E946E02FF91EF91BF91AF919F9196
:100610008F917F916F915F914F913F912F910F90AB
:100620000FBE0F901F9018951F920F920FB60F924A
:1006300011242F933F934F935F936F937F938F93E7
:100640009F93AF93BF93EF93FF93E0911202F091CA
:10065000130280818093320282E192E00E946E0256
:10066000FF91EF91BF91AF919F918F917F916F918A
:100670005F914F913F912F910F900FBE0F901F9060
:100680001895EAEBF0E0859194919093270280937E
:1006900026028BE690E0909329028093280281E065
:1006A00080932A0210922B0210922C0210922F0299
:1006B00010922E02ECEBF0E08591949190931D0244
:1006C00080931C028CE690E090931F0280931E02A0
:1006D00082E0809320021092210210922202109256
:1006E000250210922402EEEBF0E085919491909314
:1006F0001302809312028DE690E09093150280938E
:10070000140284E0809316021092170210921802CD
:1007100010921B0210921A020895FC011282089591
:10072000FC011282668345830895FC012481229591
:100730002695277011F40796089580E090E00895BB
:10074000FC012481229526952770213011F48781A0
:100750000895211104C007960E94B718089580E0FB
:100760000895FC012481229526952770253029F4CF
:1007700067817085818592850895211103C0079650
:100780000C94D51860E070E0CB010895CF93DF930F
:10079000EC01FB0101900020E9F73197E61BF70B14
:1007A000E931F10508F0E9E14E2F50E0CA01E3E03C
:1007B000880F991FEA95E1F79B819770982B9B838F
:1007C0008C818F718C83CE0107960E940C19CE010B
:1007D000DF91CF910895FC018381877088608383C6
:1007E00084818F71806284836783CF010895FC01C7
:1007F00083818770886283838481806E848347834A
:100800005087618772872387CF010895FC01848117
:100810008F71806A8483838187708062838347833A
:10082000508761877287CF010895FC0184818F71A1
:100830008068848383818770806283834783508745
:1008400061877287CF010895CF93DF93EC010E94F7
:10085000030BCE0148960E948D03CE01C996DF910D
:10086000CF910C948D03EF92FF920F931F93CF9330
:10087000DF93EC01F62EE42E8901FC01E65AFF4FCE
:1008800010820E94F90DCE010E94540D811101C009
:10089000FFCF61E0CE010E94570D40E062E0CE0143
:1008A0000E945F0DCE010E94360D6E2DCE010E947A
:1008B0000D0B6F2DCE010E94940DB801CE010E9448
:1008C000AD0D4FE065E0CE010E94500E62E070E099
:1008D000CE010E94DD0DCE010E94180DEE24EA9497
:1008E0008CEFF82E01EE18EA28EA30E040E050E004
:1008F00062E0CE010E94460CDF91CF911F910F91D3
:10090000FF90EF900895CF93DF93EC0180E091E0AA
:100910000E94E613C55ADF4F9983888340E051E077
:1009200063E070E0DF91CF910C946819AF92BF92B1
:10093000CF92DF92EF92FF920F931F93CF93DF93AB
:100940001F92CDB7DEB75C017A01C22EFA01838116
:10095000D82ED694D694D694F5019189FA01908335
:10096000887F82608383C50169830E944A0BC50129
:100970000E94140B6981262F30E040E050E060E0D7
:1009800070E080E090E034504E41574567457F4F1E
:100990008F4F9F4F89019A01AB01BC01C5010E9495
:1009A0000B0C8D2D90E04A971CF447E04D0D01C0D3
:1009B00040E22C2DB701C5010E94780BF82EC5012D
:1009C0000E94D30C8F2D0F90DF91CF911F910F912B
:1009D000FF90EF90DF90CF90BF90AF900895262FBB
:1009E00030E0855A9F4FDC01ED91FC91E20FF31F3F
:1009F0008081841731F04083642FC90103960C94E1
:100A000078190895262F30E0855A9F4FDC01ED912B
:100A1000FC91E20FF31F80818F3F39F08FEF8083CD
:100A20006FEFC90103960C94781908958F929F92E5
:100A3000AF92BF92CF92DF92EF92FF92CF93DF936C
:100A4000EC016A017B0188E692E00E9448120E9454
:100A5000B8104B015C010E94B810681979098A0925
:100A60009B096C157D058E059F0528F4A895CE0180
:100A70000E941207F0CFDF91CF91FF90EF90DF90AF
:100A8000CF90BF90AF909F908F9008950F931F933A
:100A9000CF93DF93EC01FC01E65AFF4F10828FEFFA
:100AA0008B8B8E01085E1F4F9989998F8A8F8E8F4D
:100AB00087E08D8F8C8D807E83608C8F67E271E004
:100AC000C8010E94C60321E0A8016FEFCE010E9479
:100AD000960440ED57E060E070E0CE01DF91CF91E9
:100AE0001F910F910C941605EF92FF920F931F9395
:100AF000CF93DF93EC01298930E040E050E060E0E3
:100B000070E080E090E034504E41574567457F4F9C
:100B10008F4F9F4F79018A019B01AC0161E0CE01AB
:100B20000E94460C8989898F1A8E8FEF8E8F83E001
:100B30008D8F8C8D807E83608C8F67E271E0CE011B
:100B400048960E94C603BC01CE010E94B40540ED48
:100B500057E060E070E0CE01DF91CF911F910F91DF
:100B6000FF90EF900C941605CF93DF93EC01AB014F
:100B7000FB018481877091E0833009F090E08989DE
:100B80008F3F51F4992321F0FA018581833021F0C0
:100B9000CE010E94740543C08D89882311F1FA01AA
:100BA0008281FE01E55AFF4F0190F081E02DE80FB0
:100BB000F11D60812FEF260F2E3F20F4882311F0C6
:100BC00020E00AC0992369F0FA019581943049F434
:100BD0008F3F39F421E06FEFCE01DF91CF910C947C
:100BE00096048F8981111BC020E06A89CE010E9482
:100BF0009604FE01E65AFF4F81110EC08E898823AC
:100C000039F08081863020F0CE010E94460507C071
:100C100080818F5F808303C0108281E001C080E00B
:100C2000DF91CF910895FC012189FB01218324816B
:100C3000207F2160F8E04F9FA0011124242BFB01AD
:100C400024830C94B405CF93DF93EC018989898FB9
:100C50001A8E6E8F4D8F88E0289F900111248C8D05
:100C6000807F822B8F7E8C8F62E271E0CE0148966E
:100C70000E94C603BC01CE01DF91CF910C94B40554
:100C8000EF92FF920F931F93CF93DF93EC0129898B
:100C900030E040E050E060E070E080E090E0345010
:100CA0004E41574567457F4F8F4F9F4F79018A01CE
:100CB0009B01AC0160E0CE010E94460C298930E026
:100CC00040E050E060E070E080E090E034504E4161
:100CD000574567457F4F8F4F9F4F79018A019B0191
:100CE000AC0161E0CE010E94460C8D89882311F091
:100CF00042E101C041E120E06FEFCE010E942306F6
:100D00006A898989898F1A8E8FEF8E8F86E08D8F01
:100D10008C8D807E83608C8FCE0148960E94EB0381
:100D2000BC01CE01DF91CF911F910F91FF90EF9009
:100D30000C94B405EF92FF920F931F93CF93DF9320
:100D40001F92CDB7DEB77C018A0161157105E9F00C
:100D5000FC018189818F128E8FEF868F8BE0858FCA
:100D6000348D307F3360F8E02F9FC0011124382B81
:100D70003F7EF701348FC701489629830E94C6033E
:100D8000BC01C7010E94B40529810115110519F1A3
:100D9000F7018189818F128E8FEF868F8CE0858F8E
:100DA000848D807F8360F8E02F9F90011124822B37
:100DB0008F7EF701848FB801C70148960E94C60351
:100DC000BC01C7010F90DF91CF911F910F91FF9050
:100DD000EF900C94B4050F90DF91CF911F910F917C
:100DE000FF90EF900895CF93DF93EC01FC01E35A5D
:100DF000FF4F718360838989898F1A8E8FEF8E8F61
:100E000081E08D8F8C8D807E83608C8F67E271E0B6
:100E1000CE0148960E94C603BC01CE01DF91CF915E
:100E20000C94B405CF92DF92EF92FF920F931F9331
:100E3000CF93DF9300D01F92CDB7DEB78C01BE01F8
:100E40006F5F7F4F0E94BA0B882309F472C18981BA
:100E5000873008F06EC1C8010E94960B780198E1B6
:100E6000E90EF11C482FB701C8010E94FF0BF801E1
:100E7000838D982F969596959695E90FF11D178E6F
:100E80008770823009F055C1F801348D3770258D97
:100E9000D18CC08C828D918945898913EBC0442304
:100EA00061F08289C81649F04C2D6D2DC8012B8345
:100EB0003A830E94EF043A812B81F801848D83FFED
:100EC0001BC081E27896D801D99601900D928A953F
:100ED000E1F7F80185AD877F806185AF818982AFB9
:100EE000818D83AFB801675C7F4FC8012B833A8344
:100EF0000E94B4053A812B81333009F0AFC028300D
:100F000001F5F8018689882309F413C1C7010E94FD
:100F1000A003482F50E0F801238930E02150310927
:100F2000421753070CF005C18F5F838B618D628B75
:100F300081E090E00E947819F801638982E090E0F6
:100F40003AC0D1108BC02D3061F428E088E190E0E8
:100F50000FB6F894A895809360000FBE20936000B0
:100F6000FFCF2430A9F4F80181898F3F09F0E1C057
:100F7000C7010E94A003F801818B8F3F09F4FFCFC6
:100F8000C8010E944006F801618980E090E013C02A
:100F90002630A1F4C7010E94950361E0FC01808125
:100FA0008D3409F060E0F8018489861709F4C1C026
:100FB000648B83E091E00E947819BBC02A30E1F590
:100FC000F8018589882309F4B4C0C7010E949503FC
:100FD000FC018081833409F0ACC0DD24DA946D2DEE
:100FE000C8010E9402058FEF8D0DDD2011F0D82E73
:100FF000F6CF6FEF81E090E00E9478196FEF82E00A
:1010000090E00E947819C8010E944605F801818984
:10101000818F128E8FEF868F8AE0858F848D807E00
:101020008360848F67E271E0C7010E94C603BC0140
:10103000C8010E94B4057DC0213009F07AC0F801D2
:10104000E35AFF4F008111810115110509F471C0A8
:10105000C7010E94B103F80109956BC0F801E15A7C
:10106000FF4F0190F081E02D309709F460C0C70177
:1010700009955DC0442309F45CC09F3F09F459C041
:10108000333051F5273041F5F80183898F3F21F442
:10109000C8010E9446054DC0F8018289D81609F49E
:1010A00048C00E94B8107370882799270E94E710E3
:1010B000F80163898189818FD28E8FEF868F88E0D6
:1010C000858F848D807E8360848FC7010E94EB03AF
:1010D00021E0AC016D2D1AC09981913051F5F801D4
:1010E000E55AFF4F0190F081E02DE80FF11D60817E
:1010F0009FEF960F9E3F18F420E0A70107C0D11084
:1011000009C08F3F39F421E0A7016FEFC8010E94A9
:1011100096040FC020E0A701F8016289C8010E946F
:1011200096044C2D6D2DC8010E94EF0402C081E091
:1011300001C080E00F900F900F90DF91CF911F9131
:101140000F91FF90EF90DF90CF9008958F929F9234
:10115000AF92BF92CF92DF92EF92FF920F931F93C5
:10116000CF93DF93EC014B01142FD22E26E040E009
:1011700052EC61E070E088E692E00E94CF121F8A94
:10118000DD8AFE01E15AFF4F91828082DD2019F055
:10119000CE010E94830495014C2DB701CE010E941F
:1011A000330443E050E060E070E0CE0141960E94DD
:1011B000681941E050E063E071E0CE0144960E947E
:1011C00068198C898F3F11F481E08C8B0F3F59F0A7
:1011D0008A89081731F00A8B602F81E090E00E9425
:1011E00078191E8A02C081E08E8B1F3F49F08989E1
:1011F000811731F0198B612F80E090E00E947819FF
:101200008E89882331F08A898F3F19F4CE010E949C
:10121000460589898F3F19F4CE010E94740589899A
:101220008F3FB1F0CE010E94400640ED57E060E0F4
:1012300070E0CE01DF91CF911F910F91FF90EF9061
:10124000DF90CF90BF90AF909F908F900C94160539
:10125000DF91CF911F910F91FF90EF90DF90CF9092
:10126000BF90AF909F908F9008951F920F920FB6EE
:101270000F9211248F9388E10FB6F8948093600049
:10128000109260000FBE8F910F900FBE0F901F90B5
:1012900018958091360290913702A0913802B09152
:1012A00039020196A11DB11D809336029093370239
:1012B000A0933802B09339028091360290913702A0
:1012C000A0913802B091390240913C0250913D0208
:1012D00060913E0270913F0284179507A607B707F9
:1012E00010F18091350281111EC081E0809335029A
:1012F0008091360290913702A0913802B091390264
:10130000841B950BA60BB70B809336029093370284
:10131000A0933802B0933902E0913A02F0913B0277
:1013200009951092350208951F920F920FB60F92F1
:1013300011242F933F934F935F936F937F938F93DA
:101340009F93AF93BF93EF93FF938091330290915C
:1013500034028093B2000E944909FF91EF91BF913E
:10136000AF919F918F917F916F915F914F913F913D
:101370002F910F900FBE0F901F9018958EBD0000FB
:101380000DB407FEFDCF8EB508952CB52F7D2CBD75
:101390002CB5237F2CBD2CB52C7F2CBD2DB5216009
:1013A0002DBDFC0181810C94B611FC0180819181DD
:1013B00089130C94B61108951F93CF93DF93EC011A
:1013C000162F60E00E94C509812F8F710E94BE090F
:1013D0008FEF0E94BE09182F61E0CE010E94C5095F
:1013E000812FDF91CF911F910895CF92DF92EF92DD
:1013F000FF920F931F93CF93DF9300D0CDB7DEB74B
:101400008C01E62EF22E60E049835A830E94C509C2
:101410008E2D8F7180620E94BE09E82E4981C42EF4
:101420005A81D52EF40EFC1431F0F60181916F0132
:101430000E94BE09F8CF61E0C8010E94C5098E2D47
:101440000F900F90DF91CF911F910F91FF90EF9030
:10145000DF90CF900895EF92FF921F93CF93DF9389
:101460001F92CDB7DEB77C01162F60E049830E9442
:10147000C509812F8F7180620E94BE09182F498192
:10148000842F0E94BE0961E0C7010E94C509812F17
:101490000F90DF91CF911F91FF90EF900895AF9241
:1014A000BF92CF92DF92EF92FF920F931F93CF9351
:1014B000DF9300D0CDB7DEB78C01D62EFC01E380E0
:1014C000F42EE41608F4FE2CF8018481811102C088
:1014D000EF1801C0E12C60E0C80129837A830E94E3
:1014E000C5092981822F0E94BE09C82EAD2C7A81A0
:1014F000B72EFD0CFA1431F0F50181915F010E94C5
:10150000BE09F8CFEE2029F080E00E94BE09EA94DF
:10151000F9CF61E0C8010E94C5098C2D0F900F9092
:10152000DF91CF911F910F91FF90EF90DF90CF90BF
:10153000BF90AF900895AF92BF92CF92DF92EF929B
:10154000FF920F931F93CF93DF931F92CDB7DEB718
:101550008C01D62EFC01E380F42EE41608F4FE2C58
:10156000F8018481811102C0EF1801C0E12C60E014
:10157000C80179830E94C50981E60E94BE09C82E70
:10158000AD2C7981B72EFD0CFA1439F08FEF0E9443
:10159000BE09F50181935F01F7CFEE2029F08FEFAF
:1015A0000E94BE09EA94F9CF61E0C8010E94C50912
:1015B0008C2D0F90DF91CF911F910F91FF90EF90A5
:1015C000DF90CF90BF90AF9008951F93CF93DF939C
:1015D000EC01162F60E00E94C509812F0E94BE0910
:1015E000182F61E0CE010E94C509812FDF91CF91B4
:1015F0001F91089562EE0C94E50A61EE0C94E50AE1
:101600006FEF0C94E50AFC0160834183128280E253
:101610008383148285E082870895462F603808F01E
:101620004FE765E00C942B0ACF93DF93EC0160E069
:101630000E94D50982E890E00E940F116DE1CE0171
:101640000E94DC0981FF03C0CE010E94FD0A60E018
:10165000CE010E94DC09482F4E7F60E0CE010E943F
:101660002B0A62E0CE010E94DC09E4E7F0E0E4919D
:1016700021E030E001C0220FEA95EAF7822B482FE3
:1016800062E0CE010E942B0A84E690E0DF91CF91C8
:101690000C940F11CF93DF93EC0160E00E94DC0902
:1016A00081FD12C060E0CE010E94DC09482F42603B
:1016B00060E0CE010E942B0A65E070E080E090E0DF
:1016C000DF91CF910C94E710DF91CF910895CF93E4
:1016D000DF93EC01222311F020EB01C020EACE01C0
:1016E0000E944F0A61E0CE01DF91CF910C94D509A1
:1016F000CF93DF93EC010E94670BCE010E94000B99
:101700008073D9F360E0CE010E94D50940E767E01D
:10171000CE010E942B0A84FF05C0CE010E94FD0A63
:1017200080E001C081E0DF91CF9108951F93CF93B6
:10173000DF93EC0160E00E94C50980E60E94BE09CB
:101740008FEF0E94BE09182F61E0CE010E94C509EB
:10175000113258F0CE010E94FA0A62E070E080E097
:1017600090E00E94E71080E001C0812FDF91CF91CF
:101770001F910895CF92DF92EF92FF920F931F93E4
:10178000CF93DF93EC018B018F858823C9F00E94F2
:10179000C410CB84DC84ED84FE846C197D098E0931
:1017A0009F09603273408105910518F48F8581117E
:1017B000EECF0E94C4106B877C878D879E871F8623
:1017C00067E1CE010E94DC0980FD0DC00115110505
:1017D00061F0CE010E94000B90E09595879587708F
:1017E000F801808302C080E001C081E0DF91CF91E9
:1017F0001F910F91FF90EF90DF90CF900895CF93BE
:10180000DF93EC010E949B0A40E767E0CE01DF9185
:10181000CF910C942B0AEF92FF920F931F93CF93CB
:10182000DF93CDB7DEB728970FB6F894DEBF0FBEB3
:10183000CDBF7C0109831A832B833C834D835E8358
:101840006F837887FC012285AE014F5F5F4F6AE0AE
:101850000E94F509F7012285AE014F5F5F4F60E1FD
:10186000C7010E94F509F701438161E1C7010E94A8
:101870002B0A28960FB6F894DEBF0FBECDBFDF91BE
:10188000CF911F910F91FF90EF900895BF92CF924B
:10189000DF92EF92FF920F931F93CF93DF93CDB719
:1018A000DEB728970FB6F894DEBF0FBECDBF6C0130
:1018B000B62EE982FA820B831C832D833E834F83ED
:1018C000588761110AC0FC01428550E0BE016F5F7C
:1018D0007F4F05960E94FC1807C0F6E0F61708F443
:1018E00036C081E0681308C0EB2DF0E0E259FF4FED
:1018F0006491F601228506C0E62FF0E0E259FF4F21
:10190000649121E0AE014F5F5F4FC6010E94F5096F
:101910000B2D10E0F801E859FF4F6491F601438167
:10192000C6010E942B0A62E0C6010E94DC09F80190
:10193000EC58FF4F049121E030E001C0220F0A95DE
:10194000EAF7822B482F62E0C6010E942B0A2896F4
:101950000FB6F894DEBF0FBECDBFDF91CF911F91C0
:101960000F91FF90EF90DF90CF90BF9008951F935D
:10197000CF93DF93EC01162F62E00E94DC09E12F88
:10198000F0E0EC58FF4FE49141E050E001C0440F1B
:10199000EA95EAF74095482362E0CE01DF91CF91C6
:1019A0001F910C942B0ACF93DF93EC010E944A0BFA
:1019B00060E0CE010E94DC09482F416060E0CE016A
:1019C0000E942B0A40E767E0CE010E942B0A8D811E
:1019D000882349F02A85AE014B5F5F4F6AE0CE0154
:1019E0000E94F50904C060E0CE010E94B70C6DE1D1
:1019F000CE010E94DC0981FF03C0CE010E94FD0AD6
:101A000061E0CE01DF91CF910C94D509CF93DF93A4
:101A1000EC0160E00E94C50980E50E94BE0983E7F1
:101A20000E94BE0961E0CE01DF91CF910C94C509FF
:101A3000CF93DF93EC010E94060D6DE1CE010E9471
:101A4000DC09482F44606DE1CE010E942B0A6CE155
:101A5000CE010E94DC09482F4F636CE1CE010E9449
:101A60002B0A81E08C83DF91CF910895CF93DF9390
:101A7000EC010E94060D6DE1CE010E94DC09482FA9
:101A800046606DE1CE010E942B0A6CE1CE010E94FE
:101A9000DC09482F43606CE1CE010E942B0A81E0F3
:101AA0008C83DF91CF910895FC0182810895662394
:101AB00011F04FE301C040E061E00C942B0AEF927B
:101AC000FF921F93CF93DF931F92CDB7DEB77C01B8
:101AD000162F673010F561E049830E94DC094981C7
:101AE000442349F041E050E0012E01C0440F0A9424
:101AF000EAF7482B08C041E050E001C0440F1A95B6
:101B0000EAF74095482361E0C7010F90DF91CF913C
:101B10001F91FF90EF900C942B0A0F90DF91CF91C3
:101B20001F91FF90EF9008951F93CF93DF93EC01E7
:101B3000162F66E00E94DC09887F143020F4612FA4
:101B4000660F6F5F01C067E0462F482B66E0CE014D
:101B5000DF91CF911F910C942B0AEF92FF920F937C
:101B60001F93CF93DF931F92CDB7DEB77C018B011C
:101B700066E00E94DC09282F277D0230110511F450
:101B8000206204C00130110509F42860422F66E08C
:101B9000C70129830E942B0A66E0C7010E94DC0965
:101BA00091E02981821390E0892F0F90DF91CF91EE
:101BB0001F910F91FF90EF9008950F931F93CF9374
:101BC000DF93EC018B0160E00E94DC09482F437F2A
:101BD0000115110531F00130110511F4486001C003
:101BE0004C6060E0CE01DF91CF911F910F910C947A
:101BF0002B0ACF93DF93EC0188819981891719F023
:101C000061E00E947D1189819881981719F061E047
:101C10000E947D110E94380260E0CE010E94D50929
:101C200061E0CE010E94C50965E070E080E090E0CF
:101C30000E94E7104FE564E0CE010E942B0A62E0AB
:101C400070E0CE010E94AD0D882311F081E08A83FF
:101C500060E070E0CE010E94AD0D62E070E0CE0168
:101C60000E94DD0D40E767E0CE010E942B0A6CE484
:101C7000CE010E940D0BCE010E94FA0ACE010E94F5
:101C8000FD0ACE010E944A0B60E0CE010E94DC09F1
:101C9000482F4E7F60E0CE01DF91CF910C942B0A4C
:101CA00020E1629FB00111244F70462B64E00C9438
:101CB0002B0A6F927F928F929F92AF92BF92CF9298
:101CC000DF92EF92FF920F931F93CF93DF93EA017E
:101CD0002CE3C22ED12CE12CF12CA70196010E94FD
:101CE0006B166883CA01B901A70196010E946B16A1
:101CF0006983CA01B90128E130E040E050E00E9468
:101D00006B1649015A016A83CA01B9016C5F7F4FA2
:101D10008F4F9F4F27E030E040E050E00E946B166D
:101D20006F5F6B8300E010E0980140E054E6652EA1
:101D3000712C60E9C62EDD24D394E42FF0E0EE543C
:101D4000F84F7F0183E0E822FF24E114F10489F4D5
:101D5000CF01B3010E945716892B29F08EE691E03E
:101D6000A0E0B0E00AC0CF01B6010E945716892B4F
:101D7000A9F38DE691E0A0E0B0E0080F191F2A1F3B
:101D80003B1FD901C801AA27BB2788169906AA06B6
:101D9000BB0610F04F5FD1CF4E83E114F10499F4EC
:101DA000CF0164E670E00E945716892B29F08EE679
:101DB00091E0A0E0B0E00BC0CF0160E971E00E94CB
:101DC0005716892BA1F38DE691E0A0E0B0E0081B47
:101DD000190B2A0B3B0B801A910AA20AB30ACF01F6
:101DE00064E670E00E9457169C01CF0160E971E043
:101DF0000E945716E8E2F1E0A0E0A13059F4E114A6
:101E0000F10451F42115310511F04DE106C00097A0
:101E1000E1F302C0408101C04CE150E060E070E0BD
:101E200084169506A606B70640F0841A950AA60AF7
:101E3000B70AAF5F3196AC3001F7AF5FAD838394E3
:101E40008C82DF91CF911F910F91FF90EF90DF90E7
:101E5000CF90BF90AF909F908F907F906F9008959C
:101E6000CF92DF92EF92FF926B017C018091500242
:101E700090915102A0915202B0915302C816D90616
:101E8000EA06FB0671F044E552E0C701B6010E9484
:101E9000590EC0925002D0925102E0925202F0923A
:101EA0005302FF90EF90DF90CF9008950F931F9310
:101EB00060934C0270934D0280934E0290934F02B8
:101EC000009106011091070120910801309109014C
:101ED000060F171F281F391F009344021093450255
:101EE000209346023093470282E090E090934302B1
:101EF000809342020E94B810609348027093490296
:101F000080934A0290934B021F910F910895CF92B4
:101F1000DF92EF92FF920F931F930E94B810C09030
:101F20004802D0904902E0904A02F0904B026C19AE
:101F30007D098E099F0900914C0210914D0220915C
:101F40004E0230914F02683E734081059105D8F0F2
:101F50000F5F1F4F2F4F3F4F00934C0210934D02C6
:101F600020934E0230934F0248EEC40E43E0D41E3D
:101F7000E11CF11CC0924802D0924902E0924A0250
:101F8000F0924B02CACF8091440290914502A091F9
:101F90004602B0914702081719072A073B07E8F0E5
:101FA000E0914002F09141023097B9F00995611536
:101FB00071058105910519F00E94560F0EC081E050
:101FC00090E02091420230914302232B11F480E0F3
:101FD00090E0909343028093420260914C02709192
:101FE0004D0280914E0290914F021F910F91FF90F0
:101FF000EF90DF90CF9008950E94870F0E94300FDE
:102000008091560290E008950E94870F0E94300F41
:102010008091550290E008950E94870F0E94300F32
:102020008091540290E008951F920F920FB60F9284
:1020300011242F933F934F935F936F937F938F93CD
:102040009F93AF93BF93EF93FF9380915B02909127
:102050005C02892B29F0E0915B02F0915C0209950A
:10206000FF91EF91BF91AF919F918F917F916F9170
:102070005F914F913F912F910F900FBE0F901F9046
:1020800018951F920F920FB60F9211242F933F9322
:102090004F935F936F937F938F939F93AF93BF9370
:1020A000EF93FF9380915D0290915E02892B29F05E
:1020B000E0915D02F0915E020995FF91EF91BF9171
:1020C000AF919F918F917F916F915F914F913F91D0
:1020D0002F910F900FBE0F901F9018951F920F9287
:1020E0000FB60F9211242F933F938F939F93AF932B
:1020F000BF938091600290916102A0916202B091C1
:10210000630230915F0223E0230F2D3720F4019604
:10211000A11DB11D05C026E8230F0296A11DB11D0A
:1021200020935F028093600290936102A093620209
:10213000B09363028091640290916502A09166025F
:10214000B09167020196A11DB11D80936402909326
:102150006502A0936602B0936702BF91AF919F9111
:102160008F913F912F910F900FBE0F901F90189558
:102170002FB7F894609160027091610280916202C1
:10218000909163022FBF08953FB7F8948091640245
:1021900090916502A0916602B091670226B5A89B56
:1021A00005C02F3F19F00196A11DB11D3FBF662745
:1021B000782F892F9A2F620F711D811D911D42E08A
:1021C000660F771F881F991F4A95D1F70895CF9200
:1021D000DF92EF92FF92CF93DF936B017C010E941D
:1021E000C410EB01C114D104E104F10489F00E9490
:1021F00065150E94C4106C1B7D0B683E734090F304
:1022000081E0C81AD108E108F108C851DC4FEACFD3
:10221000DF91CF91FF90EF90DF90CF9008950197DD
:1022200039F0880F991F880F991F02970197F1F7CE
:102230000895789484B5826084BD84B5816084BD3E
:1022400085B5826085BD85B5816085BDEEE6F0E02F
:10225000808181608083E1E8F0E01082808182608B
:102260008083808181608083E0E8F0E0808181600C
:102270008083E1EBF0E0808184608083E0EBF0E03C
:10228000808181608083EAE7F0E0808184608083E0
:10229000808182608083808181608083808180688A
:1022A00080831092C1000895833081F028F481303A
:1022B00099F08230A1F008958730A9F08830B9F004
:1022C0008430D1F4809180008F7D03C080918000A4
:1022D0008F7780938000089584B58F7702C084B58E
:1022E0008F7D84BD08958091B0008F7703C0809169
:1022F000B0008F7D8093B0000895CF93DF9390E07E
:10230000FC01E257FF4F2491FC01EE55FF4F8491F1
:10231000882349F190E0880F991FFC01E653FF4F95
:10232000A591B49180549F4FFC01C591D4919FB762
:10233000611108C0F8948C91209582238C93888138
:1023400082230AC0623051F4F8948C91322F309578
:1023500083238C938881822B888304C0F8948C918A
:10236000822B8C939FBFDF91CF9108950F931F9382
:10237000CF93DF931F92CDB7DEB7282F30E0F9015E
:10238000E658FF4F8491F901E257FF4F1491F9018C
:10239000EE55FF4F04910023C9F0882321F0698393
:1023A0000E9454116981E02FF0E0EE0FFF1FE0540E
:1023B000FF4FA591B4919FB7F8948C91611103C020
:1023C0001095812301C0812B8C939FBF0F90DF91CB
:1023D000CF911F910F910895FC01818D228D90E086
:1023E000805C9F4F821B91098F7399270895FC0190
:1023F000918D828D981731F0828DE80FF11D858DBA
:1024000090E008958FEF9FEF0895FC01918D828DEC
:10241000981761F0828DDF01A80FB11D5D968C9138
:10242000928D9F5F9F73928F90E008958FEF9FEF43
:10243000089589E893E1892B49F080E090E0892BA9
:1024400029F00E94891381110C9400000895FC0169
:10245000848DDF01A80FB11DA35ABF4F2C91848D2D
:1024600090E001968F739927848FA689B7892C9362
:10247000A089B1898C9180648C93938D848D9813FD
:1024800006C00288F389E02D80818F7D80830895C6
:10249000CF93DF93EC01888D8823C9F0EA89FB890B
:1024A000808185FD05C0A889B9898C9186FD0FC002
:1024B0000FB607FCF5CF808185FFF2CFA889B989D7
:1024C0008C9185FFEDCFCE010E942712E7CFDF91DF
:1024D000CF910895CF92DF92FF920F931F93CF93E6
:1024E000DF931F92CDB7DEB76C01DC015B969C9148
:1024F0005B975C968C915C97981307C05096ED9112
:10250000FC915197808185FD32C0F601038D10E06A
:102510000F5F1F4F0F731127F02EF601848DF812F5
:1025200011C00FB607FCF9CFD6015096ED91FC9182
:102530005197808185FFF1CFC60169830E942712E0
:102540006981EBCF838DE80FF11DE35AFF4F608364
:10255000D6015B960C935B975296ED91FC91539745
:1025600080818062808381E058968C930DC0D60173
:102570005696ED91FC91579760835096ED91FC91A2
:10258000519780818064808381E090E00F90DF919B
:10259000CF911F910F91FF90DF90CF900895BF9240
:1025A000CF92DF92EF92FF92CF93DF93EC016A011B
:1025B0007B01B22EE889F98982E08083411581EEA2
:1025C000580761057105A1F060E079E08DE390E0C6
:1025D000A70196010E946B1621503109410951094A
:1025E0005695479537952795211580E1380798F03E
:1025F000E889F989108260E874E88EE190E0A7012B
:1026000096010E946B1621503109410951095695D6
:10261000479537952795EC85FD853083EE85FF85B9
:102620002083188EEC89FD89B082EA89FB8980813C
:1026300080618083EA89FB89808188608083EA8960
:10264000FB89808180688083EA89FB8980818F7D16
:102650008083DF91CF91FF90EF90DF90CF90BF907C
:1026600008951F920F920FB60F9211242F938F93FC
:102670009F93EF93FF93E0917802F091790280812C
:10268000E0917E02F0917F0282FD12C090818091E4
:1026900081028F5F8F7320918202821751F0E09147
:1026A0008102F0E0E859FD4F958F8093810201C0CF
:1026B0008081FF91EF919F918F912F910F900FBE8D
:1026C0000F901F9018951F920F920FB60F92112422
:1026D0002F933F934F935F936F937F938F939F932A
:1026E000AF93BF93EF93FF9388E692E00E94271287
:1026F000FF91EF91BF91AF919F918F917F916F91DA
:102700005F914F913F912F910F900FBE0F901F90AF
:10271000189588E692E00E94EC1121E0892B09F4DB
:1027200020E0822F089510926B0210926A0288EEC8
:1027300093E0A0E0B0E080936C0290936D02A093D0
:102740006E02B0936F0288E391E0909369028093E8
:10275000680285EC90E0909375028093740284EC9B
:1027600090E0909377028093760280EC90E09093D3
:1027700079028093780281EC90E090937B028093C1
:102780007A0282EC90E090937D0280937C0286EC4A
:1027900090E090937F0280937E02109281021092CB
:1027A00082021092830210928402089508950E947A
:1027B00019110E94D6130E949D00C9E1D2E10E9426
:1027C00025012097E1F30E941912F9CF0C94C61647
:1027D000CF92DF92EF92FF920F931F93CF93DF93ED
:1027E0006C017A01EB01E60EF71E00E010E0CE1559
:1027F000DF0561F06991D601ED91FC910190F081C6
:10280000E02DC6010995080F191FF1CFC801DF910E
:10281000CF911F910F91FF90EF90DF90CF9008958F
:10282000FC01808191810C945E17CF93DF93EC01C2
:1028300088819981009711F00E945E171982188291
:102840001D821C821B821A82DF91CF9108950F9303
:102850001F93CF93DF93EC018B016F5F7F4F8881D4
:1028600099810E94ED17009731F0998388831B832B
:102870000A8381E001C080E0DF91CF911F910F9129
:102880000895CF93DF93EC0188819981892B29F0FA
:102890008A819B818617970760F4CE010E942714D6
:1028A000882341F08C819D81892B19F4E881F9817D
:1028B000108281E0DF91CF910895EF92FF920F9304
:1028C0001F93CF93DF93EC017B018A01BA010E9431
:1028D0004114811104C0CE010E94151407C01D834C
:1028E0000C83B701888199810E940519CE01DF917F
:1028F000CF911F910F91FF90EF900895CF93DF93A9
:10290000EC01FB018617970761F060817181611509
:10291000710529F0448155810E945D1402C00E9416
:102920001514CE01DF91CF910895FC011182108220
:1029300013821282158214820C947E14CF93DF933B
:10294000EC016115710561F0FB0101900020E9F7D0
:10295000AF0141505109461B570B0E945D1402C044
:102960000E941514CE01DF91CF9108950F931F930C
:10297000CF93DF93CDB7DEB762970FB6F894DEBF83
:102980000FBECDBF8C01CB01F801118210821382E2
:1029900012821582148250E0BE016F5F7F4F0E9449
:1029A0001B19BE016F5F7F4FC8010E949E14629683
:1029B0000FB6F894DEBF0FBECDBFDF91CF911F9150
:1029C0000F910895EF92FF920F931F93CF93DF9390
:1029D000EC017B010C811D816115710511F480E012
:1029E00016C04115510591F0040F151FB8010E9442
:1029F00041148823A1F3288139818C819D81B701FD
:102A0000820F931F0E9405191D830C8381E0DF91C3
:102A1000CF911F910F91FF90EF900895CF93DF9387
:102A2000EC01FB0144815581608171810E94E214B7
:102A3000811103C0CE010E941514CE01DF91CF9108
:102A40000895CF93DF93EC016115710569F0FB01E7
:102A500001900020E9F7AF0141505109461B570B87
:102A60000E94E214811103C0CE010E941514CE0110
:102A7000DF91CF9108950F931F93CF93DF93EB01D5
:102A800041155105E9F02097D9F0FC016481758169
:102A900026173707A0F4621B730B8A010150110936
:102AA0006017710708F48B01FC0160817181620F6E
:102AB000731FA801CE010E940C19C00FD11F1882EC
:102AC000DF91CF911F910F9108950895E89409C067
:102AD00097FB3EF490958095709561957F4F8F4F51
:102AE0009F4F9923A9F0F92F96E9BB279395F69567
:102AF000879577956795B795F111F8CFFAF4BB0FE5
:102B000011F460FF1BC06F5F7F4F8F4F9F4F16C048
:102B1000882311F096E911C0772321F09EE8872FD2
:102B2000762F05C0662371F096E8862F70E060E08E
:102B30002AF09A95660F771F881FDAF7880F969507
:102B4000879597F9089597F99F6780E870E060E0AE
:102B500008959FEF80EC089500240A941616170636
:102B600018060906089500240A941216130614067E
:102B700005060895092E0394000C11F4882352F0E1
:102B8000BB0F40F4BF2B11F460FF04C06F5F7F4F99
:102B90008F4F9F4F089557FD9058440F551F59F080
:102BA0005F3F71F04795880F97FB991F61F09F3F3A
:102BB00079F087950895121613061406551FF2CF63
:102BC0004695F1DF08C0161617061806991FF1CFB3
:102BD00086957105610508940895E894BB276627DA
:102BE0007727CB0197F908950BD0C4CFB5DF28F034
:102BF000BADF18F0952309F0A6CFABCF1124EECFA2
:102C0000CADFA0F3959FD1F3950F50E0551F629F47
:102C1000F001729FBB27F00DB11D639FAA27F00D35
:102C2000B11DAA1F649F6627B00DA11D661F829F5C
:102C30002227B00DA11D621F739FB00DA11D621F41
:102C4000839FA00D611D221F749F3327A00D611D5E
:102C5000231F849F600D211D822F762F6A2F112440
:102C60009F5750408AF0E1F088234AF0EE0FFF1F93
:102C7000BB1F661F771F881F91505040A9F79E3FCA
:102C8000510570F060CFAACF5F3FECF3983EDCF3C4
:102C9000869577956795B795F795E7959F5FC1F707
:102CA000FE2B880F911D9695879597F9089597FBB0
:102CB000072E16F4009407D077FD09D00E94AC16B9
:102CC00007FC05D03EF4909581959F4F089570952F
:102CD00061957F4F0895A1E21A2EAA1BBB1BFD012F
:102CE0000DC0AA1FBB1FEE1FFF1FA217B307E407EB
:102CF000F50720F0A21BB30BE40BF50B661F771F43
:102D0000881F991F1A9469F7609570958095909522
:102D10009B01AC01BD01CF010895052E97FB1EF468
:102D200000940E94A41657FD07D00E946B1607FC62
:102D300003D04EF40C94A4165095409530952195EF
:102D40003F4F4F4F5F4F08959095809570956195D7
:102D50007F4F8F4F9F4F0895AA1BBB1B51E107C0A8
:102D6000AA1FBB1FA617B70710F0A61BB70B881F1B
:102D7000991F5A95A9F780959095BC01CD010895AA
:102D8000EE0FFF1F0590F491E02D0994CF93DF9390
:102D90008230910510F482E090E0E0910703F09119
:102DA000080320E030E0A0E0B0E0309739F1408146
:102DB000518148175907B8F04817590771F48281B3
:102DC0009381109729F013969C938E9312972CC0A1
:102DD000909308038093070327C02115310531F034
:102DE0004217530718F0A901DB0101C0EF019A0156
:102DF000BD01DF010280F381E02DD7CF2115310520
:102E0000F9F0281B390B2430310580F48A819B812D
:102E10006115710521F0FB019383828304C09093B7
:102E2000080380930703FE01329644C0FE01E20FBF
:102E3000F31F8193919322503109398328833AC03B
:102E40002091050330910603232B41F420910201C8
:102E50003091030130930603209305032091000174
:102E6000309101012115310541F42DB73EB7409154
:102E7000040150910501241B350BE0910503F091ED
:102E80000603E217F307A0F42E1B3F0B28173907A0
:102E900078F0AC014E5F5F4F2417350748F04E0FB6
:102EA0005F1F50930603409305038193919302C0E3
:102EB000E0E0F0E0CF01DF91CF910895CF93DF9371
:102EC000009709F487C0FC01329713821282C091E7
:102ED0000703D0910803209781F420813181280FC6
:102EE000391F80910503909106038217930779F5A6
:102EF000F0930603E09305036DC0DE0120E030E0AF
:102F0000AE17BF0750F412964D915C9113979D0137
:102F10004115510509F1DA01F3CFB383A283408152
:102F20005181840F951F8A179B0771F48D919C9195
:102F30001197840F951F02969183808312968D912D
:102F40009C911397938382832115310529F4F09383
:102F50000803E09307033EC0D9011396FC93EE9358
:102F600012974D915D91A40FB51FEA17FB0779F4F5
:102F700080819181840F951F0296D90111969C93AF
:102F80008E938281938113969C938E931297E0E0A7
:102F9000F0E08A819B81009719F0FE01EC01F9CFE6
:102FA000CE01029628813981820F931F209105035B
:102FB000309106032817390769F4309729F41092E5
:102FC00008031092070302C013821282D0930603F3
:102FD000C0930503DF91CF910895A0E0B0E0E3EF47
:102FE000F7E10C949A19EC01CB01209719F40E9497
:102FF000C616B8C0FE01E60FF71F9E012250310928
:10300000E217F30708F4ACC0D9010D911C91119798
:1030100006171707B8F00530110508F49FC0A8017E
:10302000445051094617570708F498C00250110937
:10303000061B170B019311936D937C93CF010E9494
:103040005E178CC05B01A01AB10A4E01800E911E62
:10305000A0910703B0910803612C712C60E070E02F
:10306000109709F449C0A815B905C9F5ED90FC9071
:103070001197670142E0C40ED11CCA14DB0478F139
:1030800047018A189B08640142E0C40ED11C1296C5
:10309000BC9012971396AC91B5E0CB16D10440F0DA
:1030A000B282A38391828082D9018D939C9309C0BF
:1030B0000E5F1F4F0E0D1F1DF90111830083EB2DB5
:1030C000FA2F6115710531F0DB011396FC93EE9335
:1030D000129744C0F0930803E09307033FC06D913B
:1030E0007C9111976616770608F43B01BD01129694
:1030F0000D90BC91A02DB4CF609105037091060393
:1031000068157905E9F468167906D0F44091000154
:10311000509101014115510541F44DB75EB76091E1
:10312000040170910501461B570BE417F507C0F425
:10313000F0930603E0930503F901918380830EC0A9
:103140000E94C6167C01009759F0A801BE010E949A
:10315000FC18CE010E945E17C70104C0CE0102C058
:1031600080E090E0CDB7DEB7EEE00C94B619FC013C
:1031700088279927E89421912032E9F3293010F02B
:103180002E30C8F32B3241F02D3239F4689404C04C
:103190000E944619820F911D219120532A30C0F3BD
:1031A0001EF4909581959F4F08951F93FC019927D8
:1031B0008827BC01E89411911032E9F3193010F01E
:1031C0001E30C8F31B3251F01D3249F4689406C01A
:1031D0000E943119610F711D811D911D11911053B4
:1031E0001A30B0F33EF490958095709561957F4FBD
:1031F0008F4F9F4F1F910895FB01DC0102C001908A
:103200000D9241505040D8F70895FB01DC01019028
:103210000D920020E1F70895FB01DC014150504080
:1032200048F001900D920020C9F701C01D92415055
:103230005040E0F708954532510520F4423010F037
:103240000C942619FB011082CB010895BB274A304C
:1032500031F4992322F4BDE2909581959F4F0C940F
:103260004F19592F482F372F262F660F771F881F8A
:10327000991F660F771F881F991F620F731F841F86
:10328000951F660F771F881F991F08957AE0979FF3
:10329000902D879F802D910D11240895BB27FB0150
:1032A0005527AA27880F991FAA1FA41710F0A41B3F
:1032B00083955051B9F7A05DAA3308F0A95DA19399
:1032C000009779F7B111B1931192CB010C94861943
:1032D000DC01CB01FC01F999FECF06C0F2BDE1BDD6
:1032E000F89A319600B40D9241505040B8F70895C5
:1032F000262FF999FECF1FBA92BD81BD20BD0FB612
:10330000F894FA9AF99A0FBE01960895DC01FC012F
:10331000672F71917723E1F7329704C07C916D9309
:1033200070836291AE17BF07C8F308952F923F9242
:103330004F925F926F927F928F929F92AF92BF92C5
:10334000CF92DF92EF92FF920F931F93CF93DF9371
:10335000CDB7DEB7CA1BDB0B0FB6F894DEBF0FBECE
:10336000CDBF09942A88398848885F846E847D841B
:103370008C849B84AA84B984C884DF80EE80FD801D
:103380000C811B81AA81B981CE0FD11D0FB6F89493
:0E339000DEBF0FBECDBFED010895F894FFCF54
:10339E000000090380002C01000032303135303539
:1033AE0030330054696D655265706F7274657200CA
:1033BE003A00312E342E31001F1C1F1E1F1E1F1FE0
:1033CE001E1F1E1F000000006A12E813EC110512EA
:0433DE00F711481289
:00000001FF
